:030000000213DD0B
:0C13DD00787FE4F6D8FD75810702142427
:10125E00420118000242011A001444011241736B3C
:10126E000042011600034600D646696E643A0042FB
:10127E0000DC00054200750006480037436F6E66BD
:10128E0069726D0042003F00074600EB4C696E6BC1
:10129E003A004200F1000542008A00044700604314
:1012AE006865636B3A004200670006420023000443
:1012BE0044013352653A00420137000342011000E7
:1012CE00064F0025506F72745F4E6F745F457869DC
:1012DE007374004E0125476F53746172745F5772B9
:1012EE006F6E67004B009653656E645F57726F6E3C
:1012FE0067004A00E14E6F5F416E73776572004D75
:10130E00007D5472656174795F57726F6E67005419
:10131E00000F57726F6E675F52657065617465641A
:10132E005F4261636B004C00AC4E6F7761795F5723
:10133E00726F6E67004F000050617373776F726447
:10134E005F57726F6E670050004150617373776F15
:10135E0072645F416363657074004E01024C696E86
:10136E006B5F46696E6973686564004B00A14C69DA
:10137E006E6B5F57726F6E6700460077496E666FD1
:10138E003A004C0069556E6B6E6F776E5F436D64FD
:10139E000049011C436F6E6669726D3A004A008CFB
:1013AE00436F6E6669726D6564004F0051FF16766D
:1013BE00FF1682FF168EFF169AFF16A64F00F3FF3A
:0E13CE00167CFF1688FF1694FF16A0FF16ACC3
:06167600EF24FF92802228
:06167C00A281E433FF220D
:06168200EF24FF9282221A
:06168800A283E433FF22FF
:06168E00EF24FF9284220C
:06169400A285E433FF22F1
:06169A00EF24FF928622FE
:0616A000A287E433FF22E3
:0616A600EF24FF92A722D1
:0616AC00A2A6E433FF22B8
:10161800E4900036F0900034F0A3F09000E0F090F1
:1016280000DEF0A3F0D280D281D282D283D284D2DB
:0A16380085D286D287D2A7D2A6225F
:100DC700900036F090013CE0FCA3E0FD24B8F582EA
:100DD70074003CF583E0FF74B92DF58274003CF58F
:100DE70083E0FD121477EF7B00FA90013CE0FCA34F
:100DF700E0FD24BAF58274003CF583E0FF74BB2D57
:100E0700F58274003CF583E0FD121477EAFE90004A
:0B0E170034EEF0A3EFF090013EE0FF8E
:050E220090013FEFF01C
:100E2700C36480948540037F012290013FE0FF3334
:100E370095E0FE9000F375F003EF121593EE75F051
:100E470003A42583F583A3E0FAA3E0F912159FEF26
:100E570070037F0222E4FD900158740FF09001584F
:100E6700E0FFD3940F5031900034E0FEA3E0A807D1
:100E7700088005CEC313CE13D8F9540175F00AA420
:100E8700240AFF74402DF582E43401F583EFF00D59
:100E9700900158E014F080C59001587407F0900154
:100EA70058E0FFD39407502C900036E0FEA80708BF
:100EB7008002C313D8FC540175F00AA4240AFF74F6
:100EC700402DF582E43401F583EFF00D900158E0F1
:100ED70014F080CAE4900158F090013FE0FF339589
:100EE700E0FE9000F375F003EF121593EE75F00333
:100EF700A42583F583A3E0FAA3E0F912159FBF01A8
:100F07003690013FE0FF3395E0FE90005175F00306
:100F1700EF121593EE75F003A42583F583A3E0FA8A
:100F2700A3E0F5828A83E4FF1215A3900158E00439
:100F3700F0E0C3940A40A2900158E0B40A2D900152
:100F47003FE0FF3395E0FE90005175F003EF121577
:100F570093EE75F003A42583F583A3E0FAA3E0F5E8
:100F6700828A837F011215A37F0322E4900158F040
:100F770090013FE0FF3395E0FE90005175F003EFDD
:100F8700121593EE75F003A42583F583A3E0FAA366
:100F9700E0F5828A83E4FF1215A3900158E004F07C
:100FA700E0C3942540CAE4900158F090013FE0FF68
:100FB7003395E0FE9000F375F003EF121593EE758D
:100FC700F003A42583F583A3E0FAA3E0F912159FA4
:100FD700EF703690013FE0FF3395E0FE90005175CA
:100FE700F003EF121593EE75F003A42583F583A3A1
:100FF700E0FAA3E0F5828A837F011215A3900158D6
:10100700E004F0E0C3940A40A2900158E0B40A0358
:101017007F0322E4900158F090013FE0FF3395E011
:10102700FE90005175F003EF121593EE75F003A4CF
:101037002583F583A3E0FAA3E0F5828A837F011273
:1010470015A3900158E004F0E0C3942540CAE4904A
:101057000158F0900158E0FFC3941840030210F2C2
:1010670074402FF582E43401F583E0900159F09044
:101077000159E0603290013FE0FF3395E0FE9000B8
:101087005175F003EF121593EE75F003A42583F560
:1010970083A3E0FAA3E0F5828A83E4FF1215A39005
:1010A7000159E014F080C8E4900159F090013FE045
:1010B700FF3395E0FE90005175F003EF121593EEA4
:1010C70075F003A42583F583A3E0FAA3E0F5828AEC
:1010D700837F011215A3900159E004F0E0C3940A3D
:1010E70040CA900158E004F002105AE4900158F009
:1010F70090013FE0FF3395E0FE9000F375F003EFBA
:10110700121593EE75F003A42583F583A3E0FAA3E4
:10111700E0F912159FBF013690013FE0FF3395E0DC
:10112700FE90005175F003EF121593EE75F003A4CE
:101137002583F583A3E0FAA3E0F5828A83E4FF120F
:1011470015A3900158E004F0E0C3940A40A290016F
:1011570058E0B40A2D90013FE0FF3395E0FE900080
:101167005175F003EF121593EE75F003A42583F57F
:1011770083A3E0FAA3E0F5828A837F011215A37F98
:101187000422E4900158F090013FE0FF3395E0FE20
:1011970090005175F003EF121593EE75F003A42537
:1011A70083F583A3E0FAA3E0F5828A83E4FF1215AF
:1011B700A3900158E004F0E0C3942540CAE49001ED
:1011C70058F090013FE0FF3395E0FE9000F375F093
:1011D70003EF121593EE75F003A42583F583A3E0BF
:1011E700FAA3E0F912159FEF703690013FE0FF3345
:1011F70095E0FE90005175F003EF121593EE75F030
:1012070003A42583F583A3E0FAA3E0F5828A837F0D
:10121700011215A3900158E004F0E0C3940A40A21C
:10122700900158E0B40A037F042290013FE0FF33A6
:1012370095E0FE90005175F003EF121593EE75F0EF
:1012470003A42583F583A3E0FAA3E0F5828A837FCD
:06125700011215A37F0047
:01125D00226E
:0508AC0090013EE0FF99
:0508B10090013FEFF093
:1008B600E49000E0F09000DEF0A3F0C3EF648094D3
:1008C6008540037F012290013FE0FF3395E0FE90D3
:1008D60000F375F003EF121593EE75F003A425836C
:1008E600F583A3E0FAA3E0F912159FBF01037F0287
:1008F6002290013FE0FF3395E0FE90005175F00332
:10090600EF121593EE75F003A42583F583A3E0FAA1
:10091600A3E0F5828A83E4FF1215A3E4900141F077
:1009260090013FE0FF3395E0FE9000F375F003EF92
:10093600121593EE75F003A42583F583A3E0FAA3BD
:10094600E0F912159FEF703690013FE0FF3395E016
:10095600FE90005175F003EF121593EE75F003A4A7
:100966002583F583A3E0FAA3E0F5828A83E4FF12E8
:1009760015A3900141E004F0E0C394C840A29001A1
:1009860041E0FFC394124006EFD39417402D900127
:100996003FE0FF3395E0FE90005175F003EF12152E
:1009A60093EE75F003A42583F583A3E0FAA3E0F59F
:1009B600828A837F011215A37F032290013FE0FF05
:1009C6003395E0FE90005175F003EF121593EE7526
:1009D600F003A42583F583A3E0FAA3E0F5828A83D6
:1009E6007F011215A3E4900141F090013FE0FF332F
:1009F60095E0FE9000F375F003EF121593EE75F097
:100A060003A42583F583A3E0FAA3E0F912159FBF9B
:100A1600013690013FE0FF3395E0FE90005175F0FE
:100A260003EF121593EE75F003A42583F583A3E077
:100A3600FAA3E0F5828A837F011215A3900141E0B3
:100A460004F0E0C394C840A2900141E0FFC39412B1
:100A56004006EFD3941740037F0322E4900141F050
:100A6600E4900140F090013FE0FF3395E0FE9000F6
:100A7600F375F003EF121593EE75F003A42583F5D5
:100A860083A3E0FAA3E0F912159FEF700C900140E2
:100A9600E004F0E0C3944640CC900140E0FEB4464A
:100AA600037F0622EEC3940C501A900140E0940591
:100AB60040129000DFE025E0F09000DEE033F0A386
:100AC600E0F08026900140E0FFC394175019EF94A0
:100AD6000E40149000DFE025E0F09000DEE033F0F9
:100AE600A3E04401F080037F0422E4900140F090EB
:100AF600013FE0FF3395E0FE9000F375F003EF123F
:100B06001593EE75F003A42583F583A3E0FAA3E01D
:100B1600F912159FBF010C900140E004F0E0C39468
:100B26004640CC900140E0B446037F062290014146
:100B3600E004F0E0C394105003020A66E490014119
:100B4600F0E4900140F090013FE0FF3395E0FE9025
:100B560000F375F003EF121593EE75F003A42583E9
:100B6600F583A3E0FAA3E0F912159FEF700C90014C
:100B760040E004F0E0C3944640CC900140E0FEB46F
:100B860046037F0622EEC3940C5012900140E09477
:100B960005400A9000E0E025E0F0F0801E9001405C
:100BA600E0FFC394175011EF940E400C9000E0E064
:100BB60025E0F04401F080037F0422E4900140F038
:100BC60090013FE0FF3395E0FE9000F375F003EFF0
:100BD600121593EE75F003A42583F583A3E0FAA31B
:100BE600E0F912159FBF010C900140E004F0E0C34C
:100BF600944640CC900140E0B446037F0622900123
:100C060041E004F0E0C394075003020B47E490016F
:100C160040F090013FE0FF3395E0FE9000F375F061
:100C260003EF121593EE75F003A42583F583A3E075
:100C3600FAA3E0F912159FEF700C900140E004F062
:100C4600E0C3944640CC900140E0FEB446037F06E4
:100C560022EEC3940C5012900140E09405400A9095
:100C660000E0E025E0F0F0801E900140E0FFC39434
:100C7600175011EF940E400C9000E0E025E0F04490
:100C860001F080037F0422E4900140F090013FE0F0
:100C9600FF3395E0FE9000F375F003EF121593EE27
:100CA60075F003A42583F583A3E0FAA3E0F91215F2
:100CB6009FBF010C900140E004F0E0C3944640CC95
:100CC600900140E0B446037F062290013FE0FF33E7
:100CD60095E0FE90005175F003EF121593EE75F056
:100CE60003A42583F583A3E0FAA3E0F5828A83E4CF
:100CF600FF1215A3E4900141F090013FE0FF339508
:100D0600E0FE9000F375F003EF121593EE75F00315
:100D1600A42583F583A3E0FAA3E0F912159FEF70EB
:100D26003690013FE0FF3395E0FE90005175F003E9
:100D3600EF121593EE75F003A42583F583A3E0FA6D
:100D4600A3E0F5828A83E4FF1215A3900141E00433
:100D5600F0E0C394C840A2900141E0FFC394124062
:100D660006EFD39417402D90013FE0FF3395E0FE48
:100D760090005175F003EF121593EE75F003A4255C
:100D860083F583A3E0FAA3E0F5828A837F01121537
:100D9600A37F052290013FE0FF3395E0FE900051CE
:100DA60075F003EF121593EE75F003A42583F58312
:100DB600A3E0FAA3E0F5828A837F011215A37F00E0
:010DC600220A
:0F165A00121642121618E4900139F0A3F080FE28
:10164200759850758920758780758DFA758BFAD2D9
:08165200ACD2AFD28EC2AB2274
:0B15E30090013FEBF0A3EAF0A3E9F059
:1015EE00E4FFFE90013FE0FBA3E0FAA3E0F98F8257
:1015FE008E831215666012F5993099FDC2990FBF50
:09160E0000010EEF641E4E70DABB
:0116170022B0
:1015A500EF540FFEEF7804A2E713D8FB540FFFEEBC
:1015B500C3940AEE50052430FE80032457FEEFC382
:1015C500940AEF50052430FF80032457FF8F99308C
:0D15D50099FDC299AF068F993099FDC2991A
:0115E20022E6
:0E14690074B92FF58274003EF583E0FD7F30EC
:10147700C3EF648094B0400DD3EF648094B95005F6
:10148700EF24D08013C3EF648094E14011D3EF645D
:101497008094E65009EF24A9C454F0FE80037F002E
:1014A70022C3ED648094B0400FD3ED648094B950AB
:1014B70007ED24D04EFE801AC3ED648094E1400FFF
:1014C700D3ED648094E65007ED24A94EFE80037F98
:0414D7000022AF063A
:0114DB0022EE
:0D166900E4900034F0A3F0A3F0120E222252
:0D0003009000E0E0FF9000DEE0FCA3E0FDD7
:10001000AB07ECFF1215A5AF051215A5AF0302152E
:01002000A53A
:10002600900118E0FEA3E0FF900117E02FFF90017A
:1000360016E03EFE900139E06E7003A3E06F6003A8
:1000460002020990013CF0A3F0900116E0FEA3E045
:10005600FF90013CE0FCA3E0FDC39FEE6480F8EC5A
:10006600648098502A74122DF58274013CF583E061
:10007600FB74B82DF58274003CF583E0B50310904F
:10008600013DE004F070C290013CE004F080BAED5E
:100096006F7002EC6E600302020974B82DF582746B
:1000A600003CF583E06440600302020974B92DF553
:1000B6008274003C12147190013EEFF0C364809488
:1000C60085400302047D90013EE0FF121669EF6051
:1000D6000302055A90003674F1F0E4900034F0A360
:1000E600120E1CEF600302056BE490013CF0A3F0D6
:1000F60090013EE0FF3395E0FE9000F375F003EFCC
:10010600121593EE75F003A42583F583A3E0FAA3F5
:10011600E0F912159FBF011F90013DE004F0700643
:1001260090013CE004F0C390013DE094E890013C6E
:10013600E06480948340B990013CE0B40308A3E0F6
:10014600B4E8030205CE1208ACEF60030205DD90A9
:100156000036E0FF9000E0E0B50714900034E0FEC2
:10016600A3E0FF9000DEE06E7003A3E06F60197BF2
:10017600017A00790F1215E39000E0E0FF9000DEAF
:10018600E0FCA3E0FD020010E490013CF0A3F09037
:10019600013EE0FF3395E0FE9000F375F003EF12A9
:1001A6001593EE75F003A42583F583A3E0FAA3E087
:1001B600F912159FBF011F90013DE004F0700690F3
:1001C600013CE004F0C390013DE094E890013CE07E
:1001D6006480948340B990013CE0B40308A3E0B482
:1001E600E8030205CE1208ACEF60030205DD7B01D1
:1001F6007A0079771215E31200037599233099FD79
:10020600C29922900075E0FEA3E0FF9000DDE02F8A
:10021600FF9000DCE03ECF2402CF3400FE9001398F
:10022600E06E7003A3E06F60030203E690013CF00A
:10023600A3F09000DCE0FEA3E0FF90013CE0FCA30D
:10024600E0FDC39FEE6480F8EC648098502A74D673
:100256002DF58274003CF583E0FB74B82DF58274AD
:10026600003CF583E0B5031090013DE004F070C258
:1002760090013CE004F080BAED6F7002EC6E600312
:100286000203E6900075E0FEA3E0FF9000DDE02F9C
:10029600FF9000DCE03EFE74B82FF58274003EF558
:1002A60083E0644060030203E612146990013EEFA6
:1002B600F0C364809485400302047D90013EE0FF14
:1002C600121669EF600302055A90013CE0FCA3E0B8
:1002D600FD24BCF58274003CF583E0FF74BD2DF56A
:1002E6008274003CF583E0FD121477EF120DC7EF20
:1002F600600302056BE490013CF0A3F09000F3A3C9
:10030600E0FAA3E0F912159FBF011F90013DE0043A
:10031600F0700690013CE004F0C390013DE094E8E3
:1003260090013CE06480948340D290013CE0B403A9
:1003360008A3E0B4E8030205CE1208ACEF6003029E
:1003460005DD900036E0FF9000E0E0B50714900070
:1003560034E0FEA3E0FF9000DEE06E7003A3E06FE2
:100366006003020606E490013CF0A3F090013EE033
:10037600FF3395E0FE9000F375F003EF121593EE50
:1003860075F003A42583F583A3E0FAA3E0F912151B
:100396009FBF011F90013DE004F0700690013CE014
:1003A60004F0C390013DE0941090013CE064809419
:1003B600A740B990013CE0B42708A3E0B4100302BB
:1003C60005CE1208ACEF60030205DD7B017A0179E8
:1003D6001C1215E31200037599233099FDC2992268
:1003E600900040E02402FF90003FE03400FE9001C0
:1003F60039E06E7003A3E06F60030204A890013C2D
:10040600F0A3F090003FE0FEA3E0FF90013CE0FC8B
:10041600A3E0FDC39FEE6480F8EC648098502A74D4
:10042600372DF58274003CF583E0FB74B82DF58218
:1004360074003CF583E0B5031090013DE004F070D4
:10044600C290013CE004F080BAED6F7002EC6E7071
:100456005174B82DF58274003CF583E06440704217
:1004660074B92DF58274003C12147190013EEFF0C0
:10047600C36480948540097B017A0079250208A827
:100486009000367410F0E4900034F0A3120E1CEFC6
:100496007B0160077A0079960208A87A00798C02B7
:1004A60008A890008AE0FEA3E0FF9000F2E02FFF8C
:1004B6009000F1E03EFE900119E02FFF900118E058
:1004C6003EFE900139E06E7003A3E06F6003020602
:1004D600A690013CF0A3F09000F1E0FEA3E0FF90AF
:1004E600013CE0FCA3E0FDC39FEE6480F8EC648071
:1004F60098502A74EB2DF58274003CF583E0FB746A
:10050600B82DF58274003CF583E0B5031090013DEB
:10051600E004F070C290013CE004F080BAED6F7028
:1005260002EC6E60030206A690008AE0FEA3E02DB0
:10053600FFEC3EFE74B82FF58274003EF583E0644E
:100546004060030206A612146990013EEFF01216EF
:1005560069EF60097B017A0179250208A874F31214
:100566000DC7EF60097B017A0079960208A8E4902E
:10057600013CF0A3F090013EE0FF3395E0FE9000D1
:10058600F375F003EF121593EE75F003A42583F5CA
:1005960083A3E0FAA3E0F912159FBF011F90013D66
:1005A600E004F0700690013CE004F0C390013DE0E9
:1005B60094E890013CE06480948340B990013CE06B
:1005C600B4030EA3E0B4E8097B017A0079E10208DE
:1005D600A81208ACEF60097B017A00797D0208A8B1
:1005E600900036E0FF9000E0E0B50714900034E09C
:1005F600FEA3E0FF9000DEE06E7003A3E06F6009EB
:100606007B017A00790F0208A8E490013CF0A3F080
:1006160090013EE0FF3395E0FE9000F375F003EFA6
:10062600121593EE75F003A42583F583A3E0FAA3D0
:10063600E0F912159FBF011F90013DE004F070061E
:1006460090013CE004F0C390013DE094E890013C49
:10065600E06480948340B990013CE0B4030EA3E0CB
:10066600B4E8097B017A0079E10208A81208ACEF28
:1006760060097B017A00797D0208A89000E0E0FC21
:10068600B412097B017A0179020208A8EC7B01B455
:1006960013077A0079A10208A87A0079AC0208A8A3
:1006A600900023E0FEA3E0FF900068E02FFF90009B
:1006B60067E03EFE900119E02FFF900118E03EFE34
:1006C600900139E06E7003A3E06F60030208A29008
:1006D600013CF0A3F0900067E0FEA3E0FF90013C30
:1006E600E0FCA3E0FDC39FEE6480F8EC64809850C4
:1006F6002A74602DF58274003CF583E0FB74B82DF6
:10070600F58274003CF583E0B5031090013DE004EA
:10071600F070C290013CE004F080BAED6F7002EC1C
:100726006E60030208A2900023E0FEA3E02DFFEC1A
:100736003EFE74B82FF58274003EF583E064406097
:10074600030208A212146990013EEFF0121669EF37
:1007560060097B017A0179250208A890003674F0B9
:10076600120DCAEF60097B017A0079960208A8E4A7
:1007760090013CF0A3F090013EE0FF3395E0FE903F
:1007860000F375F003EF121593EE75F003A42583BD
:10079600F583A3E0FAA3E0F912159FBF011F9001AC
:1007A6003DE004F0700690013CE004F0C390013D8A
:1007B600E094E890013CE06480948340B990013C69
:1007C600E0B4030EA3E0B4E8097B017A0079E10204
:1007D60008A81208ACEF60097B017A00797D02084F
:1007E600A8900036E0FF9000E0E0B50714900034D2
:1007F600E0FEA3E0FF9000DEE06E7003A3E06F6012
:10080600097B017A00790F0208A8E490013CF0A365
:10081600F090013EE0FF3395E0FE9000F375F003A3
:10082600EF121593EE75F003A42583F583A3E0FA82
:10083600A3E0F912159FBF011F90013DE004F0707F
:100846000690013CE004F0C390013DE094E890017D
:100856003CE06480948340B990013CE0B4030DA36E
:10086600E0B4E8087B017A0079E180361208ACEF43
:1008760060087B017A00797D80289000E0E0FCB476
:1008860010087B017A0079008018EC7B01B4110610
:100896007A007941800C7A0079AC80067B017A0077
:0508A60079691215E361
:0108AB00222A
:1014DC0090013BEFF024DC701C900139E07002A30A
:1014EC00E0600A120026E4900139F0A3F0E49001C8
:1014FC0039F0A3F02290013BE0FF900139E0FCA30E
:10150C00E024B8F58274003CF583EFF090013AE0EA
:0B151C0004F07006900139E004F0229A
:030023000215279C
:10152700C0E0C0F0C083C082C0D075D000C000C08A
:0D15370001C002C003C004C005C006C0070B
:07154400AF99C2981214DCFC
:10154B00D007D006D005D004D003D002D001D000F4
:0B155B00D0D0D082D083D0F0D0E0329E
:1013E90002165AE493A3F8E493A34003F68001F2AA
:1013F90008DFF48029E493A3F85407240CC8C33305
:10140900C4540F4420C8834004F456800146F6DFD3
:10141900E4800B010204081020408090125EE47EF3
:10142900019360BCA3FF543F30E509541FFEE493C8
:10143900A360010ECF54C025E060A840B8E493A38F
:10144900FAE493A3F8E493A3C8C582C8CAC583CABA
:10145900F0A3C8C582C8CAC583CADFE9DEE780BE72
:0113DC000010
:10156600BB010CE58229F582E5833AF583E022503A
:1015760006E92582F8E622BBFE06E92582F8E22284
:0D158600E58229F582E5833AF583E493229E
:0C159300A42582F582E5F03583F5832263
:06159F008A838982E473D7
:00000001FF
