:03000000021234B5
:0C123400787FE4F6D8FD75810702127B7C
:100EF60060A400060F80108011C01340148016C035
:100F060018401900258028802C002DC030803E0016
:100F160042C044C049004B004D00500052805B4027
:100F26005E8066C06AC0700075809B00A500B180B7
:100F3600C080CD00E380F280FA00258128812C0153
:100F46002DC130813E0142C144C149014B014D01D1
:100F5600500152815B415E8166C16AC17001758133
:100F66009B01A501B181C081CD01E381F281FA0126
:100F7600258228822C022DC230823E0244C24902BA
:100F86004B024D02500252825B425E8266C26AC2C8
:100F96007582FA02FA03FA04605200AA0F070B03DD
:100FA600050911013E0E3616060A7C3C1C12220C5F
:100FB60002743406244404783858182848080870FF
:100FC600703030305060606010106010202020209B
:100FD60020204040404040404040000000000000CB
:100FE6000000000000000000000000000000605249
:100FF60000FC0000000000000000000000000000EF
:1010060000000000000000000000000000000000DA
:1010160000000002000600060200000E060202049E
:1010260000000E06020408000E060A02040810005C
:101036003E0E3616060A3C1C12220C027434142488
:1010460004084080430003FF1465430159FF146BF5
:0E119900900176ECF0A3EDF0A3EAF0A3EBF0EA
:1011A700AD07AC06E4120B79C004C005C006C00742
:1011B700900176E0FCA3E0FDE4120B79A804A905F1
:1011C700AA06AB07D007D006D005D004120A6A904A
:1011D7000151120C0AE490017CF0A3F090017AE02F
:1011E700FEA3E0FFC3900179E09FFF900178E09EA6
:1011F700FEC390017DE09F90017CE09E502E900100
:1012070051E0FCA3E0FDA3E0FEA3E0FFE4FBFA79D5
:10121700207841120961900151120C0A90017DE07A
:0C12270004F070B890017CE004F080B08E
:011233002298
:0810570090016AEEF0A3EFF036
:10105F0090016AE0FCA3E0FDAE047806CEC313CE88
:10106F0013D8F9FF90016CEEF0A3EFF07E00ED5472
:10107F003FFFA3EEF0FCA3EFF0FD900162E0FAA3B7
:10108F00E0FBAE027806CEC313CE13D8F9FF900162
:10109F0070EEF0A3EFF07E00EB543FFFA3EEF0A352
:1010AF00EFF0D39DEE9C402490016CE0FCA3E0FD9B
:1010BF00900172E0FAA3E0FB90016EE0FFA3E090D5
:1010CF00017ACFF0A3EFF0900170806990016EE08C
:1010DF00FEA3E0FF900172E06E7003A3E06F703328
:1010EF0090016CE0FCA3E0FD900170E0FEA3E0FF37
:1010FF00D39DEE9C4002801090016CE0FEA3E0FFB8
:10110F00900170E0FCA3E0FDE490017AF0A3F0FB06
:10111F00FA8027900170E0FCA3E0FD90016EE0FAE9
:10112F00A3E0FB900172E0FFA3E090017ACFF0A360
:10113F00EFF090016CE0FEA3E0FF12119990015EB9
:10114F00E0FCA3E0FDA3E0FEA3E0FF900151E0F877
:10115F00A3E0F9A3E0FAA3E0FB120B0750289001DC
:10116F0051E0FCA3E0FDA3E0FEA3E0FF90015E12BF
:10117F000C0A90016AE0FFA3E090015CCFF0A3EFAF
:09118F00F07E007F0122E4FEFF66
:011198002234
:1012C000E4900168F0A3F0900168E0FEA3E0FFC3A2
:1012D0009452EE648094805052EF25E0FFEE33FE8E
:1012E00074062FF58274003EF583E0FEA3E0FF1242
:1012F0001057EF4E6025900168E0FEA3E0FF24AA9E
:10130000F58274003EF583E0900150F074FC2FF5F7
:101310008274003EF583E0900155F0900169E0048D
:0B132000F070A4900168E004F0809CD5
:01132B00229F
:0D145800900155E0F5A0900150E0F58022D4
:10140400C290C2B4C2B2C296C294C291C292C2B7CE
:0D141400C2B6C2B5C2B3C297C295C2932240
:10132C00C290C2B4C2B2C296C294C291C292EF141D
:10133C00B40800503A90134F75F003A4C58325F000
:10134C00C5837302136702137B02136A02136D02C7
:10135C001370021373021376021379D29022D2B453
:10136C0022D2B222D29622D29422D29122D292228C
:10137C00C2B7C2B6C2B5C2B3C297C295C293EF246C
:10138C00FEB4070050379013A075F003A4C5832555
:10139C00F0C583730213B50213B80213BB0213BE5C
:1013AC000213C10213C40213C7D2B722D2B622D27F
:0E13BC00B522D2B322D29722D29522D293220A
:1013CA00AE07EEB401047F018027EDB401097F0165
:1013DA0012132CAF06801FEEB40209AF0512132CAC
:1013EA007F028012EDAF06B4020712132C7F02802F
:0A13FA000512132CAF0512137C221C
:06146500EF24FF92A0221B
:06146B00A287E433FF221A
:10143E00E4900002F0900000F0A3F0900158F090BC
:0A144E000156F0A3F0D2A0D28722CD
:05000300900168EFF020
:10000800E4900158F0900156F0A3F0C3EF64809497
:100018008140037F0122900168E0FF3395E0FE9064
:10002800015975F003EF120C47EE75F003A4258310
:10003800F583A3E0FAA3E0F9120C53BF01037F0292
:1000480022900168E0FF3395E0FE90000375F0030D
:10005800EF120C47EE75F003A42583F583A3E0FAAD
:10006800A3E0F5828A83E4FF120C57E490016AF05A
:10007800900168E0FF3395E0FE90015975F003EFB9
:10008800120C47EE75F003A42583F583A3E0FAA3C9
:10009800E0F9120C53EF7036900168E0FF3395E0F9
:1000A800FE90000375F003EF120C47EE75F003A401
:1000B8002583F583A3E0FAA3E0F5828A83E4FF129F
:1000C8000C5790016AE004F0E0C394C840A2900184
:1000D8006AE0FFC394124006EFD39417402D9001B5
:1000E80068E0FF3395E0FE90000375F003EF120C13
:1000F80047EE75F003A42583F583A3E0FAA3E0F5A2
:10010800828A837F01120C577F0322900168E0FFE7
:100118003395E0FE90000375F003EF120C47EE757F
:10012800F003A42583F583A3E0FAA3E0F5828A838C
:100138007F01120C57E490016AF0900168E0FF33E8
:1001480095E0FE90015975F003EF120C47EE75F03B
:1001580003A42583F583A3E0FAA3E0F9120C53BFA7
:100168000136900168E0FF3395E0FE90000375F0DA
:1001780003EF120C47EE75F003A42583F583A3E083
:10018800FAA3E0F5828A837F01120C5790016AE096
:1001980004F0E0C394C840A290016AE0FFC394123F
:1001A8004006EFD3941740037F0322E490016AF0DE
:1001B800E4900169F0900168E0FF3395E0FE90015A
:1001C8005975F003EF120C47EE75F003A42583F57B
:1001D80083A3E0FAA3E0F9120C53EF700C900169C5
:1001E800E004F0E0C3944640CC900169E0FEB446D8
:1001F800037F0622EEC3940C501A900169E094051F
:100208004012900157E025E0F0900156E033F0A34A
:10021800E0F08026900169E0FFC394175019EF942D
:100228000E4014900157E025E0F0900156E033F0BD
:10023800A3E04401F080037F0422E4900169F09078
:100248000168E0FF3395E0FE90015975F003EF1265
:100258000C47EE75F003A42583F583A3E0FAA3E029
:10026800F9120C53BF010C900169E004F0E0C3944B
:100278004640CC900169E0B446037F062290016AAB
:10028800E004F0E0C3941050030201B8E490016A5E
:10029800F0E4900169F0900168E0FF3395E0FE908A
:1002A800015975F003EF120C47EE75F003A425838E
:1002B800F583A3E0FAA3E0F9120C53EF700C900158
:1002C80069E004F0E0C3944640CC900169E0FEB4D4
:1002D80046037F0622EEC3940C5012900169E09405
:1002E80005400A900158E025E0F0F0801E90016971
:1002F800E0FFC394175011EF940E400C900158E0A2
:1003080025E0F04401F080037F0422E4900169F0C5
:10031800900168E0FF3395E0FE90015975F003EF16
:10032800120C47EE75F003A42583F583A3E0FAA326
:10033800E0F9120C53BF010C900169E004F0E0C32E
:10034800944640CC900169E0B446037F06229001B0
:100358006AE004F0E0C394075003020299E49001B4
:1003680069F0900168E0FF3395E0FE90015975F05F
:1003780003EF120C47EE75F003A42583F583A3E081
:10038800FAA3E0F9120C53EF700C900169E004F045
:10039800E0C3944640CC900169E0FEB446037F0672
:1003A80022EEC3940C5012900169E09405400A9023
:1003B8000158E025E0F0F0801E900169E0FFC39449
:1003C800175011EF940E400C900158E025E0F044CE
:1003D80001F080037F0422E4900169F0900168E055
:1003E800FF3395E0FE90015975F003EF120C47EECC
:1003F80075F003A42583F583A3E0FAA3E0F9120CB2
:1004080053BF010C900169E004F0E0C3944640CC6E
:10041800900169E0B446037F0622900168E0FF334B
:1004280095E0FE90000375F003EF120C47EE75F0AF
:1004380003A42583F583A3E0FAA3E0F5828A83E485
:10044800FF120C57E490016AF0900168E0FF3395C1
:10045800E0FE90015975F003EF120C47EE75F003BA
:10046800A42583F583A3E0FAA3E0F9120C53EF70F7
:1004780036900168E0FF3395E0FE90000375F003C5
:10048800EF120C47EE75F003A42583F583A3E0FA79
:10049800A3E0F5828A83E4FF120C5790016AE00416
:1004A800F0E0C394C840A290016AE0FFC3941240F0
:1004B80006EFD39417402D900168E0FF3395E0FED6
:1004C80090000375F003EF120C47EE75F003A425B6
:1004D80083F583A3E0FAA3E0F5828A837F01120CF7
:1004E800577F0522900168E0FF3395E0FE900003F6
:1004F80075F003EF120C47EE75F003A42583F5831E
:10050800A3E0FAA3E0F5828A837F01120C577F00EB
:0105180022C0
:0C051900900002F0E4900000F0A3F0FF5E
:05052500900168EFF0F9
:10052A00C36480948140037F0122900168E0FF3315
:10053A0095E0FE90015975F003EF120C47EE75F045
:10054A0003A42583F583A3E0FAA3E0F9120C53EF81
:10055A0070037F0222E4FD900181740FF090018103
:10056A00E0FFD3940F5031900000E0FEA3E0A8070B
:10057A00088005CEC313CE13D8F9540175F00AA426
:10058A00240AFF74692DF582E43401F583EFF00D36
:10059A00900181E014F080C59001817407F0900108
:1005AA0081E0FFD39407502C900002E0FEA80708D0
:1005BA008002C313D8FC540175F00AA4240AFF74FC
:1005CA00692DF582E43401F583EFF00D900181E0A5
:1005DA0014F080CAE4900181F0900168E0FF33953D
:1005EA00E0FE90015975F003EF120C47EE75F00327
:1005FA00A42583F583A3E0FAA3E0F9120C53BF0103
:10060A0036900168E0FF3395E0FE90000375F00331
:10061A00EF120C47EE75F003A42583F583A3E0FAE5
:10062A00A3E0F5828A83E4FF120C57900181E0046B
:10063A00F0E0C3940A40A2900181E0B40A2D90012F
:10064A0068E0FF3395E0FE90000375F003EF120CAB
:10065A0047EE75F003A42583F583A3E0FAA3E0F53A
:10066A00828A837F01120C577F0322E4900181F072
:10067A00900168E0FF3395E0FE90000375F003EF08
:10068A00120C47EE75F003A42583F583A3E0FAA3C1
:10069A00E0F5828A83E4FF120C57900181E004F0AE
:1006AA00E0C3942540CAE4900181F0900168E0FF1C
:1006BA003395E0FE90015975F003EF120C47EE7581
:1006CA00F003A42583F583A3E0FAA3E0F9120C53FF
:1006DA00EF7036900168E0FF3395E0FE90000375F5
:1006EA00F003EF120C47EE75F003A42583F583A3FC
:1006FA00E0FAA3E0F5828A837F01120C5790018108
:10070A00E004F0E0C3940A40A2900181E0B40A0335
:10071A007F0322E4900181F0900168E0FF3395E0C5
:10072A00FE90000375F003EF120C47EE75F003A478
:10073A002583F583A3E0FAA3E0F5828A837F011279
:10074A000C57900181E004F0E0C3942540CAE4907C
:10075A000181F0900181E0FFC3941840030207F57C
:10076A0074692FF582E43401F583E0900182F090F8
:10077A000182E06032900168E0FF3395E0FE90006C
:10078A000375F003EF120C47EE75F003A42583F509
:10079A0083A3E0FAA3E0F5828A83E4FF120C579060
:1007AA000182E014F080C8E4900182F0900168E0D0
:1007BA00FF3395E0FE90000375F003EF120C47EE4D
:1007CA0075F003A42583F583A3E0FAA3E0F5828AF2
:1007DA00837F01120C57900182E004F0E0C3940A6F
:1007EA0040CA900181E004F002075DE4900181F0C3
:1007FA00900168E0FF3395E0FE90015975F003EF30
:10080A00120C47EE75F003A42583F583A3E0FAA33F
:10081A00E0F9120C53BF0136900168E0FF3395E00E
:10082A00FE90000375F003EF120C47EE75F003A477
:10083A002583F583A3E0FAA3E0F5828A83E4FF1215
:10084A000C57900181E004F0E0C3940A40A29001A1
:10085A0081E0B40A2D900168E0FF3395E0FE900034
:10086A000375F003EF120C47EE75F003A42583F528
:10087A0083A3E0FAA3E0F5828A837F01120C577FF3
:10088A000422E4900181F0900168E0FF3395E0FED4
:10089A0090000375F003EF120C47EE75F003A425E0
:1008AA0083F583A3E0FAA3E0F5828A83E4FF120CBE
:1008BA0057900181E004F0E0C3942540CAE4900116
:1008CA0081F0900168E0FF3395E0FE90015975F0E0
:1008DA0003EF120C47EE75F003A42583F583A3E01A
:1008EA00FAA3E0F9120C53EF7036900168E0FF3377
:1008FA0095E0FE90000375F003EF120C47EE75F0D9
:10090A0003A42583F583A3E0FAA3E0F5828A837F13
:10091A0001120C57900181E004F0E0C3940A40A24E
:10092A00900181E0B40A037F0422900168E0FF335A
:10093A0095E0FE90000375F003EF120C47EE75F098
:10094A0003A42583F583A3E0FAA3E0F5828A837FD3
:06095A0001120C577F00A2
:010960002274
:10142100E4FFFEE4FDFC0DBD00010CED64C84C7051
:0C143100F50FBF00010EEF64C84E70E71D
:01143D00228C
:100C5900E4F580F590F5A0F5B012143E900159A382
:100C6900E0FAA3E0F9120C53EF640160EFE4FF121C
:100C79000003EF70E7900158E0FF60E0900156E053
:100C8900FDA3E0900000CDF0A3EDF0A3EFF0E4FFA9
:100C9900120525900158E0B4F1107411900000F08C
:100CA900A3F0A37421F0E4020E77900158E064F0F8
:050CB9006003020E13B0
:100CBE00900156E0B4340CA3E0B46307741112052E
:100CCE001980109000027410F0E4900000F0A3F070
:100CDE00020E77758080E4F59075A00175B00390D3
:100CEE000166F0A304F0E4900164F0A3F0900166B5
:100CFE00A3E04280121421E025E0F0900166E0337B
:100D0E00F0758080121421900165E004F070069059
:100D1E000164E004F0C3900165E09407900164E083
:100D2E006480948040C7900166E4F0A304F0E490E0
:100D3E000164F0A3F0900166A3E04290121421E04A
:100D4E0025E0F0900166E033F0E4F5901214219066
:100D5E000165E004F07006900164E004F0C39001B8
:100D6E0065E09408900164E06480948040C790012F
:100D7E0066E4F0A37404F0E4900164F0A3F0900133
:100D8E0066A3E042B0121421E025E0F0900166E087
:100D9E0033F075B003121421900165E004F0700673
:100DAE00900164E004F0C3900165E0940690016444
:100DBE00E06480948040C7900166E4F0A37402F072
:100DCE00E4900164F0A3F0C3900165E094079001F4
:100DDE0064E0648094804003020C65900166A3E099
:100DEE0042A0121421E025E0F0900166E033F07588
:100DFE00A001121421900165E004F070CA90016404
:050E0E00E004F080C2C9
:080E1300900158E064F37063E4
:100E1B00121404900156E0FEA3E0FF540FFD900165
:100E2B0064F0EEC4F854F0C8EFC4540F48540FA349
:100E3B00F0BD0105E06401600C900164E0B40214A4
:100E4B00A3E0B4020F9000027413F0E4900000F0E2
:100E5B00A3F08018900164E0FFA3E0FD1213CA9089
:100E6B0000027412F0E4900000F0A3F0FF120525CD
:100E7B00020C65900158E06421706890015E120CC1
:100E8B001642C80000900156E0FFA3E0900162CF2C
:100E9B00F0A3EFF01212C090015CE0FFA3E0900012
:100EAB0000CFF0A3EFF0A37421F0E4FF120525901F
:100EBB000159A3E0FAA3E0F9120C53EF640160EFC0
:100ECB00E4FF120003EF6003020C65900158E0FF92
:100EDB007003020C65EF64106003020C651214586A
:0B0EEB00020C657414120519020C655E
:10096100EC4D6011E8497017ED33EC3304600DE490
:10097100FCFFFEFD22E933E8330470F8020BE712B5
:100981000BB258046009E4CC2481500628500902B6
:100991000BF1284003020BEEC0E0EB4A7044B98032
:1009A10006D0E0FB020BDDEF4E701CBD8008EBFFB3
:1009B100EAFEE9FD80EBE98DF0A4FEE5F0020A4ACA
:1009C100E9CDF9EAFEEBFFEF89F0A4FCE5F0CE8971
:1009D100F0A42EFFE435F0CD89F0A42DFEE435F02E
:1009E1008067EF4E7005BD80D780C3EF8BF0A4AC5C
:1009F100F0EE8BF0A42CFCE435F0F8EF8AF0A42C97
:100A0100E5F038FCE433CB8DF0A42CFCE5F03BF8A9
:100A1100EE8AF0A42CFCE5F038F8E433CF89F0A499
:100A21002CFCE5F038CF3400CE89F0A42FFFE5F09F
:100A31003EFEE433C98DF0A42EFEE5F039CD8AF0F7
:100A4100A42FFFE5F03EFEE43DFD33D0E0FB50076F
:100A51000BBB000F020BF1EC2CFCEF33FFEE33FE6E
:060A6100ED33FD020BC99C
:100A6700020BF1EC5D046005E859047003020BE723
:100A7700120BB2580460F6EC4860F2EC7004FDFE0D
:100A8700FF22C860DB2481C85009C3986002500662
:100A9700020BEE9850CAF582E9294B4A7005AB82E2
:100AA700020BDD75F0007C1A7880C3EF9BEE9AEDA0
:100AB70099400DC3EF9BFFEE9AFEED99FDE842F0DA
:100AC700DC23ACF0D0E0FFD0E0FED0E0FDAB82202D
:100AD700E7101BEB60BAEC2CFCEF33FFEE33FEEDB7
:100AE70033FD020BC9E803F830E705C0F075F000E5
:100AF700EF2FFFEE33FEED33FD40B830E7C280AA9B
:100B070074F8CC6480CCC86480C8F582046043C3A1
:100B1700EB9FF5F0EA9E42F0E99D42F0E89C45F034
:100B270060305018E5825FFFE582F42B5582FB5059
:100B3700210ABA001D09B90019088016E5825BFB76
:100B4700E582F42F5582FF50090EBE00050DBD004A
:100B5700010CC3EB9FF5F0EA9E42F0E99D42F0E8F5
:0D0B67009C45F06007CC4820E701B3EC226C
:100B740075F020800E75F010800575F0087D007EFC
:100B8400007F003392D530D503120BFCEC334010B8
:100B9400EF33FFEE33FEED33FDEC33FCD5F0ED2205
:0E0BA400E5F0247EA2D513CC92E7CDCEFF2241
:100BB200E9D2E7C933E833F892D5EDD2E7CD33EC89
:070BC20033FC5002B2D52202
:100BC900EC30E7100FBF000C0EBE00080DBD00048D
:100BD9000BEB6014A2D5EB13FCED92E7FD2274FF39
:100BE900FCFDFEFF22E480F8A2D574FF13FC7D8092
:030BF900E480EFA6
:10124000020C59E493A3F8E493A34003F68001F25F
:1012500008DFF48029E493A3F85407240CC8C333AF
:10126000C4540F4420C8834004F456800146F6DF7E
:10127000E4800B0102040810204080900EF6E47E0A
:10128000019360BCA3FF543F30E509541FFEE49373
:10129000A360010ECF54C025E060A840B8E493A33A
:1012A000FAE493A3F8E493A3C8C582C8CAC583CA65
:1012B000F0A3C8C582C8CAC583CADFE9DEE780BE1D
:011056000099
:0E0BFC00C3E49FFFE49EFEE49DFDE49CFC220A
:0C0C0A00ECF0A3EDF0A3EEF0A3EFF0225D
:100C1600A8828583F0D083D082120C2D120C2D125F
:100C26000C2D120C2DE473E493A3C583C5F0C58384
:100C3600C8C582C8F0A3C583C5F0C583C8C582C828
:010C4600228B
:0C0C4700A42582F582E5F03583F58322B8
:060C53008A838982E4732C
:00000001FF
