:03000000021235B4
:0C123500787FE4F6D8FD75810702127C7A
:100EF70060A400060F80108011C01340148016C034
:100F070018401900258028802C002DC030803E0015
:100F170042C044C049004B004D00500052805B4026
:100F27005E8066C06AC0700075809B00A500B180B6
:100F3700C080CD00E380F280FA00258128812C0152
:100F47002DC130813E0142C144C149014B014D01D0
:100F5700500152815B415E8166C16AC17001758132
:100F67009B01A501B181C081CD01E381F281FA0125
:100F7700258228822C022DC230823E0244C24902B9
:100F87004B024D02500252825B425E8266C26AC2C7
:100F97007582FA02FA03FA04605200AA0F070B03DC
:100FA700050911013E0E3616060A7C3C1C12220C5E
:100FB70002743406244404783858182848080870FE
:100FC700703030305060606010106010202020209A
:100FD70020204040404040404040000000000000CA
:100FE7000000000000000000000000000000605248
:100FF70000FC0000000000000000000000000000EE
:1010070000000000000000000000000000000000D9
:1010170000000002000600060200000E060202049D
:1010270000000E06020408000E060A02040810005B
:101037003E0E3616060A3C1C12220C027434142487
:1010470004084080430003FF1466430159FF146CF2
:0E119A00900176ECF0A3EDF0A3EAF0A3EBF0E9
:1011A800AD07AC06E4120B79C004C005C006C00741
:1011B800900176E0FCA3E0FDE4120B79A804A905F0
:1011C800AA06AB07D007D006D005D004120A6A9049
:1011D8000151120C0AE490017CF0A3F090017AE02E
:1011E800FEA3E0FFC3900179E09FFF900178E09EA5
:1011F800FEC390017DE09F90017CE09E502E9001FF
:1012080051E0FCA3E0FDA3E0FEA3E0FFE4FBFA79D4
:10121800207841120961900151120C0A90017DE079
:0C12280004F070B890017CE004F080B08D
:011234002297
:0810580090016AEEF0A3EFF035
:1010600090016AE0FCA3E0FDAE047806CEC313CE87
:1010700013D8F9FF90016CEEF0A3EFF07E00ED5471
:101080003FFFA3EEF0FCA3EFF0FD900162E0FAA3B6
:10109000E0FBAE027806CEC313CE13D8F9FF900161
:1010A00070EEF0A3EFF07E00EB543FFFA3EEF0A351
:1010B000EFF0D39DEE9C402490016CE0FCA3E0FD9A
:1010C000900172E0FAA3E0FB90016EE0FFA3E090D4
:1010D000017ACFF0A3EFF0900170806990016EE08B
:1010E000FEA3E0FF900172E06E7003A3E06F703327
:1010F00090016CE0FCA3E0FD900170E0FEA3E0FF36
:10110000D39DEE9C4002801090016CE0FEA3E0FFB6
:10111000900170E0FCA3E0FDE490017AF0A3F0FB05
:10112000FA8027900170E0FCA3E0FD90016EE0FAE8
:10113000A3E0FB900172E0FFA3E090017ACFF0A35F
:10114000EFF090016CE0FEA3E0FF12119A90015EB7
:10115000E0FCA3E0FDA3E0FEA3E0FF900151E0F876
:10116000A3E0F9A3E0FAA3E0FB120B0750289001DB
:1011700051E0FCA3E0FDA3E0FEA3E0FF90015E12BE
:101180000C0A90016AE0FFA3E090015CCFF0A3EFAE
:09119000F07E007F0122E4FEFF65
:011199002233
:1012C100E4900168F0A3F0900168E0FEA3E0FFC3A1
:1012D1009452EE648094805052EF25E0FFEE33FE8D
:1012E10074062FF58274003EF583E0FEA3E0FF1241
:1012F1001058EF4E6025900168E0FEA3E0FF24AA9C
:10130100F58274003EF583E0900150F074FC2FF5F6
:101311008274003EF583E0900155F0900169E0048C
:0B132100F070A4900168E004F0809CD4
:01132C00229E
:0D145900900155E0F5A0900150E0F58022D3
:10140500C290C2B4C2B2C296C294C291C292C2B7CD
:0D141500C2B6C2B5C2B3C297C295C293223F
:10132D00C290C2B4C2B2C296C294C291C292EF141C
:10133D00B40800503A90135075F003A4C58325F0FE
:10134D00C5837302136802137C02136B02136E02C2
:10135D00137102137402137702137AD29022D2B44E
:10136D0022D2B222D29622D29422D29122D292228B
:10137D00C2B7C2B6C2B5C2B3C297C295C293EF246B
:10138D00FEB4070050379013A175F003A4C5832553
:10139D00F0C583730213B60213B90213BC0213BF57
:1013AD000213C20213C50213C8D2B722D2B622D27B
:0E13BD00B522D2B322D29722D29522D2932209
:1013CB00AE07EEB401047F018027EDB401097F0164
:1013DB0012132DAF06801FEEB40209AF0512132DA9
:1013EB007F028012EDAF06B4020712132D7F02802D
:0A13FB000512132DAF0512137D2219
:06146600EF24FF92A0221A
:06146C00A287E433FF2219
:10143F00E4900002F0900000F0A3F0900158F090BB
:0A144F000156F0A3F0D2A0D28722CC
:05000300900168EFF020
:10000800E4900158F0900156F0A3F0C3EF64809497
:100018008140037F0122900168E0FF3395E0FE9064
:10002800015975F003EF120C47EE75F003A4258310
:10003800F583A3E0FAA3E0F9120C53BF01037F0292
:1000480022900168E0FF3395E0FE90000375F0030D
:10005800EF120C47EE75F003A42583F583A3E0FAAD
:10006800A3E0F5828A83E4FF120C57E490016AF05A
:10007800900168E0FF3395E0FE90015975F003EFB9
:10008800120C47EE75F003A42583F583A3E0FAA3C9
:10009800E0F9120C53EF7036900168E0FF3395E0F9
:1000A800FE90000375F003EF120C47EE75F003A401
:1000B8002583F583A3E0FAA3E0F5828A83E4FF129F
:1000C8000C5790016AE004F0E0C394C840A2900184
:1000D8006AE0FFC394124006EFD39417402D9001B5
:1000E80068E0FF3395E0FE90000375F003EF120C13
:1000F80047EE75F003A42583F583A3E0FAA3E0F5A2
:10010800828A837F01120C577F0322900168E0FFE7
:100118003395E0FE90000375F003EF120C47EE757F
:10012800F003A42583F583A3E0FAA3E0F5828A838C
:100138007F01120C57E490016AF0900168E0FF33E8
:1001480095E0FE90015975F003EF120C47EE75F03B
:1001580003A42583F583A3E0FAA3E0F9120C53BFA7
:100168000136900168E0FF3395E0FE90000375F0DA
:1001780003EF120C47EE75F003A42583F583A3E083
:10018800FAA3E0F5828A837F01120C5790016AE096
:1001980004F0E0C394C840A290016AE0FFC394123F
:1001A8004006EFD3941740037F0322E490016AF0DE
:1001B800E4900169F0900168E0FF3395E0FE90015A
:1001C8005975F003EF120C47EE75F003A42583F57B
:1001D80083A3E0FAA3E0F9120C53EF700C900169C5
:1001E800E004F0E0C3944640CC900169E0FEB446D8
:1001F800037F0622EEC3940C501A900169E094051F
:100208004012900157E025E0F0900156E033F0A34A
:10021800E0F08026900169E0FFC394175019EF942D
:100228000E4014900157E025E0F0900156E033F0BD
:10023800A3E04401F080037F0422E4900169F09078
:100248000168E0FF3395E0FE90015975F003EF1265
:100258000C47EE75F003A42583F583A3E0FAA3E029
:10026800F9120C53BF010C900169E004F0E0C3944B
:100278004640CC900169E0B446037F062290016AAB
:10028800E004F0E0C3941050030201B8E490016A5E
:10029800F0E4900169F0900168E0FF3395E0FE908A
:1002A800015975F003EF120C47EE75F003A425838E
:1002B800F583A3E0FAA3E0F9120C53EF700C900158
:1002C80069E004F0E0C3944640CC900169E0FEB4D4
:1002D80046037F0622EEC3940C5012900169E09405
:1002E80005400A900158E025E0F0F0801E90016971
:1002F800E0FFC394175011EF940E400C900158E0A2
:1003080025E0F04401F080037F0422E4900169F0C5
:10031800900168E0FF3395E0FE90015975F003EF16
:10032800120C47EE75F003A42583F583A3E0FAA326
:10033800E0F9120C53BF010C900169E004F0E0C32E
:10034800944640CC900169E0B446037F06229001B0
:100358006AE004F0E0C394075003020299E49001B4
:1003680069F0900168E0FF3395E0FE90015975F05F
:1003780003EF120C47EE75F003A42583F583A3E081
:10038800FAA3E0F9120C53EF700C900169E004F045
:10039800E0C3944640CC900169E0FEB446037F0672
:1003A80022EEC3940C5012900169E09405400A9023
:1003B8000158E025E0F0F0801E900169E0FFC39449
:1003C800175011EF940E400C900158E025E0F044CE
:1003D80001F080037F0422E4900169F0900168E055
:1003E800FF3395E0FE90015975F003EF120C47EECC
:1003F80075F003A42583F583A3E0FAA3E0F9120CB2
:1004080053BF010C900169E004F0E0C3944640CC6E
:10041800900169E0B446037F0622900168E0FF334B
:1004280095E0FE90000375F003EF120C47EE75F0AF
:1004380003A42583F583A3E0FAA3E0F5828A83E485
:10044800FF120C57E490016AF0900168E0FF3395C1
:10045800E0FE90015975F003EF120C47EE75F003BA
:10046800A42583F583A3E0FAA3E0F9120C53EF70F7
:1004780036900168E0FF3395E0FE90000375F003C5
:10048800EF120C47EE75F003A42583F583A3E0FA79
:10049800A3E0F5828A83E4FF120C5790016AE00416
:1004A800F0E0C394C840A290016AE0FFC3941240F0
:1004B80006EFD39417402D900168E0FF3395E0FED6
:1004C80090000375F003EF120C47EE75F003A425B6
:1004D80083F583A3E0FAA3E0F5828A837F01120CF7
:1004E800577F0522900168E0FF3395E0FE900003F6
:1004F80075F003EF120C47EE75F003A42583F5831E
:10050800A3E0FAA3E0F5828A837F01120C577F00EB
:0105180022C0
:0C051900900002F0E4900000F0A3F0FF5E
:05052500900168EFF0F9
:10052A00C36480948140037F0122900168E0FF3315
:10053A0095E0FE90015975F003EF120C47EE75F045
:10054A0003A42583F583A3E0FAA3E0F9120C53EF81
:10055A0070037F0222E4FD900181740FF090018103
:10056A00E0FFD3940F5031900000E0FEA3E0A8070B
:10057A00088005CEC313CE13D8F9540175F00AA426
:10058A00240AFF74692DF582E43401F583EFF00D36
:10059A00900181E014F080C59001817407F0900108
:1005AA0081E0FFD39407502C900002E0FEA80708D0
:1005BA008002C313D8FC540175F00AA4240AFF74FC
:1005CA00692DF582E43401F583EFF00D900181E0A5
:1005DA0014F080CAE4900181F0900168E0FF33953D
:1005EA00E0FE90015975F003EF120C47EE75F00327
:1005FA00A42583F583A3E0FAA3E0F9120C53BF0103
:10060A0036900168E0FF3395E0FE90000375F00331
:10061A00EF120C47EE75F003A42583F583A3E0FAE5
:10062A00A3E0F5828A83E4FF120C57900181E0046B
:10063A00F0E0C3940A40A2900181E0B40A2D90012F
:10064A0068E0FF3395E0FE90000375F003EF120CAB
:10065A0047EE75F003A42583F583A3E0FAA3E0F53A
:10066A00828A837F01120C577F0322E4900181F072
:10067A00900168E0FF3395E0FE90000375F003EF08
:10068A00120C47EE75F003A42583F583A3E0FAA3C1
:10069A00E0F5828A83E4FF120C57900181E004F0AE
:1006AA00E0C3942540CAE4900181F0900168E0FF1C
:1006BA003395E0FE90015975F003EF120C47EE7581
:1006CA00F003A42583F583A3E0FAA3E0F9120C53FF
:1006DA00EF7036900168E0FF3395E0FE90000375F5
:1006EA00F003EF120C47EE75F003A42583F583A3FC
:1006FA00E0FAA3E0F5828A837F01120C5790018108
:10070A00E004F0E0C3940A40A2900181E0B40A0335
:10071A007F0322E4900181F0900168E0FF3395E0C5
:10072A00FE90000375F003EF120C47EE75F003A478
:10073A002583F583A3E0FAA3E0F5828A837F011279
:10074A000C57900181E004F0E0C3942540CAE4907C
:10075A000181F0900181E0FFC3941840030207F57C
:10076A0074692FF582E43401F583E0900182F090F8
:10077A000182E06032900168E0FF3395E0FE90006C
:10078A000375F003EF120C47EE75F003A42583F509
:10079A0083A3E0FAA3E0F5828A83E4FF120C579060
:1007AA000182E014F080C8E4900182F0900168E0D0
:1007BA00FF3395E0FE90000375F003EF120C47EE4D
:1007CA0075F003A42583F583A3E0FAA3E0F5828AF2
:1007DA00837F01120C57900182E004F0E0C3940A6F
:1007EA0040CA900181E004F002075DE4900181F0C3
:1007FA00900168E0FF3395E0FE90015975F003EF30
:10080A00120C47EE75F003A42583F583A3E0FAA33F
:10081A00E0F9120C53BF0136900168E0FF3395E00E
:10082A00FE90000375F003EF120C47EE75F003A477
:10083A002583F583A3E0FAA3E0F5828A83E4FF1215
:10084A000C57900181E004F0E0C3940A40A29001A1
:10085A0081E0B40A2D900168E0FF3395E0FE900034
:10086A000375F003EF120C47EE75F003A42583F528
:10087A0083A3E0FAA3E0F5828A837F01120C577FF3
:10088A000422E4900181F0900168E0FF3395E0FED4
:10089A0090000375F003EF120C47EE75F003A425E0
:1008AA0083F583A3E0FAA3E0F5828A83E4FF120CBE
:1008BA0057900181E004F0E0C3942540CAE4900116
:1008CA0081F0900168E0FF3395E0FE90015975F0E0
:1008DA0003EF120C47EE75F003A42583F583A3E01A
:1008EA00FAA3E0F9120C53EF7036900168E0FF3377
:1008FA0095E0FE90000375F003EF120C47EE75F0D9
:10090A0003A42583F583A3E0FAA3E0F5828A837F13
:10091A0001120C57900181E004F0E0C3940A40A24E
:10092A00900181E0B40A037F0422900168E0FF335A
:10093A0095E0FE90000375F003EF120C47EE75F098
:10094A0003A42583F583A3E0FAA3E0F5828A837FD3
:06095A0001120C577F00A2
:010960002274
:10142200E4FFFEE4FDFC0DBD00010CED64C84C7050
:0C143200F50FBF00010EEF64C84E70E71C
:01143E00228B
:100C5900E4F580F590F5A0F5B012143F900159A381
:100C6900E0FAA3E0F9120C53EF640160EFE4FF121C
:100C79000003EF70E7900158E0FF60E0900156E053
:100C8900FDA3E0900000CDF0A3EDF0A3EFF0E4FFA9
:100C9900120525900158E0B4F1119000007411F08B
:100CA900A304F0A37421F0E4020E78900158E064E3
:060CB900F06003020E14BE
:100CBF00900156E0B4340CA3E0B46307741112052D
:100CCF001980109000027410F0E4900000F0A3F06F
:100CDF00020E78758080E4F59075A00175B00390D1
:100CEF000166F0A304F0E4900164F0A3F0900166B4
:100CFF00A3E04280121422E025E0F0900166E03379
:100D0F00F0758080121422900165E004F070069057
:100D1F000164E004F0C3900165E09407900164E082
:100D2F006480948040C7900166E4F0A304F0E490DF
:100D3F000164F0A3F0900166A3E04290121422E048
:100D4F0025E0F0900166E033F0E4F5901214229064
:100D5F000165E004F07006900164E004F0C39001B7
:100D6F0065E09408900164E06480948040C790012E
:100D7F0066E4F0A37404F0E4900164F0A3F0900132
:100D8F0066A3E042B0121422E025E0F0900166E085
:100D9F0033F075B003121422900165E004F0700671
:100DAF00900164E004F0C3900165E0940690016443
:100DBF00E06480948040C7900166E4F0A37402F071
:100DCF00E4900164F0A3F0C3900165E094079001F3
:100DDF0064E0648094804003020C65900166A3E098
:100DEF0042A0121422E025E0F0900166E033F07586
:100DFF00A001121422900165E004F070CA90016402
:050E0F00E004F080C2C8
:080E1400900158E064F37063E3
:100E1C00121405900156E0FEA3E0FF540FFD900163
:100E2C0064F0EEC4F854F0C8EFC4540F48540FA348
:100E3C00F0BD0105E06401600C900164E0B40214A3
:100E4C00A3E0B4020F9000027413F0E4900000F0E1
:100E5C00A3F08018900164E0FFA3E0FD1213CB9087
:100E6C0000027412F0E4900000F0A3F0FF120525CC
:100E7C00020C65900158E06421706890015E120CC0
:100E8C001642C80000900156E0FFA3E0900162CF2B
:100E9C00F0A3EFF01212C190015CE0FFA3E0900010
:100EAC0000CFF0A3EFF0A37421F0E4FF120525901E
:100EBC000159A3E0FAA3E0F9120C53EF640160EFBF
:100ECC00E4FF120003EF6003020C65900158E0FF91
:100EDC007003020C65EF64106003020C6512145968
:0B0EEC00020C657414120519020C655D
:10096100EC4D6011E8497017ED33EC3304600DE490
:10097100FCFFFEFD22E933E8330470F8020BE712B5
:100981000BB258046009E4CC2481500628500902B6
:100991000BF1284003020BEEC0E0EB4A7044B98032
:1009A10006D0E0FB020BDDEF4E701CBD8008EBFFB3
:1009B100EAFEE9FD80EBE98DF0A4FEE5F0020A4ACA
:1009C100E9CDF9EAFEEBFFEF89F0A4FCE5F0CE8971
:1009D100F0A42EFFE435F0CD89F0A42DFEE435F02E
:1009E1008067EF4E7005BD80D780C3EF8BF0A4AC5C
:1009F100F0EE8BF0A42CFCE435F0F8EF8AF0A42C97
:100A0100E5F038FCE433CB8DF0A42CFCE5F03BF8A9
:100A1100EE8AF0A42CFCE5F038F8E433CF89F0A499
:100A21002CFCE5F038CF3400CE89F0A42FFFE5F09F
:100A31003EFEE433C98DF0A42EFEE5F039CD8AF0F7
:100A4100A42FFFE5F03EFEE43DFD33D0E0FB50076F
:100A51000BBB000F020BF1EC2CFCEF33FFEE33FE6E
:060A6100ED33FD020BC99C
:100A6700020BF1EC5D046005E859047003020BE723
:100A7700120BB2580460F6EC4860F2EC7004FDFE0D
:100A8700FF22C860DB2481C85009C3986002500662
:100A9700020BEE9850CAF582E9294B4A7005AB82E2
:100AA700020BDD75F0007C1A7880C3EF9BEE9AEDA0
:100AB70099400DC3EF9BFFEE9AFEED99FDE842F0DA
:100AC700DC23ACF0D0E0FFD0E0FED0E0FDAB82202D
:100AD700E7101BEB60BAEC2CFCEF33FFEE33FEEDB7
:100AE70033FD020BC9E803F830E705C0F075F000E5
:100AF700EF2FFFEE33FEED33FD40B830E7C280AA9B
:100B070074F8CC6480CCC86480C8F582046043C3A1
:100B1700EB9FF5F0EA9E42F0E99D42F0E89C45F034
:100B270060305018E5825FFFE582F42B5582FB5059
:100B3700210ABA001D09B90019088016E5825BFB76
:100B4700E582F42F5582FF50090EBE00050DBD004A
:100B5700010CC3EB9FF5F0EA9E42F0E99D42F0E8F5
:0D0B67009C45F06007CC4820E701B3EC226C
:100B740075F020800E75F010800575F0087D007EFC
:100B8400007F003392D530D503120BFCEC334010B8
:100B9400EF33FFEE33FEED33FDEC33FCD5F0ED2205
:0E0BA400E5F0247EA2D513CC92E7CDCEFF2241
:100BB200E9D2E7C933E833F892D5EDD2E7CD33EC89
:070BC20033FC5002B2D52202
:100BC900EC30E7100FBF000C0EBE00080DBD00048D
:100BD9000BEB6014A2D5EB13FCED92E7FD2274FF39
:100BE900FCFDFEFF22E480F8A2D574FF13FC7D8092
:030BF900E480EFA6
:10124100020C59E493A3F8E493A34003F68001F25E
:1012510008DFF48029E493A3F85407240CC8C333AE
:10126100C4540F4420C8834004F456800146F6DF7D
:10127100E4800B0102040810204080900EF7E47E08
:10128100019360BCA3FF543F30E509541FFEE49372
:10129100A360010ECF54C025E060A840B8E493A339
:1012A100FAE493A3F8E493A3C8C582C8CAC583CA64
:1012B100F0A3C8C582C8CAC583CADFE9DEE780BE1C
:011057000098
:0E0BFC00C3E49FFFE49EFEE49DFDE49CFC220A
:0C0C0A00ECF0A3EDF0A3EEF0A3EFF0225D
:100C1600A8828583F0D083D082120C2D120C2D125F
:100C26000C2D120C2DE473E493A3C583C5F0C58384
:100C3600C8C582C8F0A3C583C5F0C583C8C582C828
:010C4600228B
:0C0C4700A42582F582E5F03583F58322B8
:060C53008A838982E4732C
:00000001FF
