:0300000002169451
:0C169400787FE4F6D8FD7581070216DBB4
:1009610061E0021E3E003C003B003A0038003700C7
:10097100360034003300320030E030002B002A0012
:1009810028002700260024C0240023C02300228C35
:10099100220020C020001F001E801E001D001C80A0
:1009A1001C001B801B001A801A00190018801800F7
:1009B10017801700168016601600150014E01480C9
:1009C100146014000F8013801360130012E0128072
:1009D100126012001160110010E010801060100010
:1009E1000BC00B800B400B000AC00A800A700A4042
:1009F1000A0009700940090008F008C00880087061
:100A01000840080007C0078007600740070006E0AC
:100A110006C006800660064006180600056005400F
:100A21000518050004E004C00498048004780460FB
:100A310004400418040003E003D003C003A00390A2
:100A4100038003700360035003400320031003007D
:100A510002F002E002D002CC02C002A0029C02908D
:100A6100028C028001F00270026C0260025C025092
:100A7100024C0240022C0220021C0210020C020055
:100A8100017801700168016001580150014E01486F
:100A91000140012E01280120011E01180110010E43
:100AA1000108010000F800F000EC00E800E000DCC3
:100AB10000D800D000CC00C800C000AC00A800A045
:100AC100009C00980090008F008C008800830080BB
:100AD100007C007A0078007400720070006E006C77
:100AE100006A0068006400620060005E005C005AF9
:100AF1000058005400520050003E004E004C004A85
:100B01000048004400420040002E002C002A00282A
:100B1100002400220020001E001C001A00170018EB
:100B21000014001200110010000F000E000D000C47
:100B3100000B000A0007000900080005000400037B
:100B41000002000161E0000C0F400F801000104016
:100B510010801140118011C0128012C01300134087
:100B610013C01400148015C01600168016C017801B
:100B710017C01800184018C019002580260026C08B
:100B81002740280028802B402C002D002DC02E80CE
:100B91002F80308035C037003880390039C03B00A4
:100BA1003BC03C803D403E0042C044804580468081
:100BB10047C048C049C04B004C004D004E804FC05B
:100BC100510052805A405B405D805E80618062C00E
:100BD1006440658066C0680069806AC06D406EC00F
:100BE1007040724073C0758097C09AC09F80A1C049
:100BF100A500ABC0AE80B240B880BB80BE00BFC014
:100C0100C5C0C900CC00CE40D900DD40E080E34042
:100C1100EAC0EDC0F2C0F6C0FA00BB41BE81C1819D
:100C2100C441C7C1CB01D881DC41E0C1E4C1E8C105
:100C3100EDC1F241868289828D028E829042934279
:100C41009542974299029B02A6C2AB42ADC2B04205
:100C5100B342B602B882BB82BD82C082C442C7829F
:100C6100CAC2CE42E142E3C2E9C2EC42F402F6C298
:100C7100FAC2FDC28083820383C3858388838A434A
:100C81008C438EC390C392C3BDC3C143C743CA0340
:100C9100CE03D6C3DA03DE83E683EA43EFC3F70369
:100CA100FB4380C487848A048E04930494849784CC
:100CB1009A849C44EA04EE04F1C4F544F984FD8469
:100CC100874589858C458F05914594859745A8056C
:100CD100ABC5B005B445B805BD05C1C5D085D64580
:100CE100DC45E385EA45F0C5F98580C68E4693C6A5
:100CF1009A46A086A6C6AF46B786F1C680C78B07BF
:100D0100938795C7A107B187C147C3479C089E88B0
:100D1100B988BD48EC48F24897499BC9A109DB094C
:100D2100E549DDCAF40A988E602A01EDFF193DFFFD
:100D31001943FF1949FF194FFF1955FF195BFF1996
:100D410061FF1967FF196DFF1973FF1979FF197F8A
:100D5100FF1985FF198B430003FF1991430217FF08
:020D61001997E0
:06193D00EF24FF9280225E
:06194300EF24FF92812257
:06194900EF24FF92822250
:06194F00EF24FF92832249
:06195500EF24FF92842242
:06195B00EF24FF9285223B
:06196100EF24FF92862234
:06196700EF24FF92A12213
:06196D00EF24FF92A2220C
:06197300EF24FF92A32205
:06197900EF24FF92A422FE
:06197F00EF24FF92A522F7
:06198500EF24FF92A622F0
:06198B00EF24FF92A722E9
:10183E00E490040AF0A3F090040AE0FEA3E0FFC3D4
:10184E00940EEE6480948050319001ED75F003EFAC
:10185E0012104FEE75F003A42583F583A3E0FAA3CF
:10186E00E0F5828A83E4FF12105F90040BE004F02F
:0A187E0070C590040AE004F080BD7C
:01188800223D
:1018C300AD07AC06ED7806CEC313CE13D8F9FFEE01
:1018D3005403900008F0A3EFF0ED543FFF90040091
:0618E300E4F0A3EFF02287
:05172000E0FEA3E0FF64
:10172500EF25E0FFEE33FE740C2FF58274003EF5D5
:1017350083E0FEA3E0FDAC06543FFF90040CE4F00B
:10174500A3EFF0ED7806CEC313CE13D8F9FFEE5410
:1017550003FE90040CE0FCA3E0FD900400E0FAA376
:10176500E0FBD39DEA9C40037F012290040CE0FC42
:10177500A3E0FDC3EB9DEA9C50037FFF2290000888
:10178500E0FCA3E0FDD39FEC9E40037F0122C3ED67
:0A1795009FEC9E50037FFF227F00AF
:01179F002227
:0E13700090040CEEF0A3EFF0A3ECF0A3EDF070
:10137E0090040DE025E0FF90040CE033FE740C2F7A
:10138E00F58274003EF583E0FEA3E0FDAC06543F0B
:10139E00FF900410E4F0A3EFF0ED7806CEC313CE69
:1013AE0013D8F9FFEE5403900412F0A3EFF090005F
:1013BE0008E0FCA3E0FDE4120F7CC004C005C006EB
:1013CE00C007900410A3E0FF900400A3E0C39FFFAA
:1013DE0074017E00A807088005C333CE33CED8F93A
:1013EE00FDAC06EC120F7CD003D002D001D000125F
:1013FE000D64C004C005C006C007900412E0FCA333
:10140E00E0FDE4120F7CA804A905AA06AB07D007DD
:10141E00D006D005D004120E6D9004141210439015
:10142E00040FE025E0FF90040EE033FE740C2FF560
:10143E008274003EF583E0FCA3E0FD543FFF900470
:10144E0010E4F0A3EFF0AE04ED7806CEC313CE1386
:10145E00D8F9FFEE5403FE900412F0A3EFF0FDACAA
:10146E0006E4120F7CC004C005C006C0079004003D
:10147E00A3E0FF900410A3E0C39FFF74017E00A8B9
:10148E0007088005C333CE33CED8F9FDAC06EC1277
:10149E000F7CD003D002D001D000120D64C004C066
:1014AE0005C006C007900008E0FCA3E0FDE4120FA3
:1014BE007CA804A905AA06AB07D007D006D005D094
:1014CE0004120E6D900418121043E4FFFE7D807C12
:1014DE003F900414E0F8A3E0F9A3E0FAA3E0FB12B6
:1014EE000F0A4047E4FFFE7D807C3F900418E0F831
:1014FE00A3E0F9A3E0FAA3E0FB120F0A402D90043B
:10150E0018E0FCA3E0FDA3E0FEA3E0FF900414E0CE
:10151E00F8A3E0F9A3E0FAA3E0FB120F0A5005903E
:0D152E00040C800390040EA3E0FF227F0058
:01153B00228D
:10153C001218C3E4900406F0A3F0A3F0A374EFF028
:10154C00900406121720A907900408121720D3E95B
:10155C006480948050059004068062C3EF6480948C
:10156C008040059004088055900408E0FEA3E0FF3D
:10157C00900406E0FAA3E0FB2FFFEA3EFE7C007D20
:10158C0002120FFF90040AEEF0A3EFF0EBB5072167
:10159C00EAB5061D900406FEA3E0FFA3E0FCA3E061
:1015AC00FD121370EF600590040680039004088010
:1015BC000C90040A121720EF700990040AE0FEA3A5
:1015CC00E0FF22D3EF6480948090040AE0FFA3E054
:1015DC0040059004068003900408CFF0A3EFF002BE
:0215EC00154C9C
:0815EE00900406EEF0A3EFF0FB
:1015F60012183E900406E0FEA3E0FFC3EE6480945A
:10160600805003021691EF94F0EE64809480507B34
:10161600E4A3F0A3F0900408E0FCA3E0FDC3940E5D
:10162600EC648094805061900407E025E0FF90040C
:1016360006E033FE741E2FF58274023EF583E0FE4B
:10164600A3E0A805088005CEC313CE13D8F930E071
:1016560027900408E0FEA3E09001ED75F003121058
:101666004FEE75F003A42583F583A3E0FAA3E0F516
:10167600828A837F0112105F900409E004F070955E
:0D168600900408E004F0808D7F01227F00B9
:011693002234
:1018E900C290C2B4C2B2C296C294C291C292C2B7E5
:0D18F900C2B6C2B5C2B3C297C295C2932257
:1017A000C290C2B4C2B2C296C294C291C292EF14A5
:1017B000B40800503A9017C375F003A4C58325F010
:1017C000C583730217DB0217EF0217DE0217E1026F
:1017D00017E40217E70217EA0217EDD29022D2B4FB
:1017E00022D2B222D29622D29422D29122D2922214
:1017F000C2B7C2B6C2B5C2B3C297C295C293EF24F4
:10180000FEB40700503790181475F003A4C5832563
:10181000F0C5837302182902182C02182F021832FF
:1018200002183502183802183BD2B722D2B622D29B
:0E183000B522D2B322D29722D29522D2932291
:10188900AE07EEB401047F018027EDB401097F01A1
:101899001217A0AF06801FEEB40209AF051217A0F8
:1018A9007F028012EDAF06B402071217A07F0280F3
:0A18B900051217A0AF051217F02268
:06199100EF24FF92A022EA
:06199700A287E433FF22E9
:10192300E4900002F0900000F0A3F09001ECF0903E
:0A193300000AF0A3F0D2A0D2872230
:05000300900406EFF07F
:10000800E49001ECF090000AF0A3F0C3EF64809450
:100018008140037F0122900406E0FF3395E0FE90C3
:10002800021775F003EF12104FEE75F003A4258345
:10003800F583A3E0FAA3E0F912105BBF01037F0286
:1000480022900406E0FF3395E0FE90000375F0036C
:10005800EF12104FEE75F003A42583F583A3E0FAA1
:10006800A3E0F5828A83E4FF12105FE4900408F0AD
:10007800900406E0FF3395E0FE90021775F003EF59
:1000880012104FEE75F003A42583F583A3E0FAA3BD
:10009800E0F912105BEF7036900406E0FF3395E04C
:1000A800FE90000375F003EF12104FEE75F003A4F5
:1000B8002583F583A3E0FAA3E0F5828A83E4FF129F
:1000C800105F900408E004F0E0C394C840A29004D4
:1000D80008E0FFC394124006EFD39417402D900414
:1000E80006E0FF3395E0FE90000375F003EF121071
:1000F8004FEE75F003A42583F583A3E0FAA3E0F59A
:10010800828A837F0112105F7F0322900406E0FF3A
:100118003395E0FE90000375F003EF12104FEE7573
:10012800F003A42583F583A3E0FAA3E0F5828A838C
:100138007F0112105FE4900408F0900406E0FF339A
:1001480095E0FE90021775F003EF12104FEE75F070
:1001580003A42583F583A3E0FAA3E0F912105BBF9B
:100168000136900406E0FF3395E0FE90000375F039
:1001780003EF12104FEE75F003A42583F583A3E077
:10018800FAA3E0F5828A837F0112105F900408E0E9
:1001980004F0E0C394C840A2900408E0FFC394129E
:1001A8004006EFD3941740037F0322E4900408F03D
:1001B800E4900407F0900406E0FF3395E0FE900217
:1001C8001775F003EF12104FEE75F003A42583F5B1
:1001D80083A3E0FAA3E0F912105BEF700C90040718
:1001E800E004F0E0C3944640CC900407E0FEB44637
:1001F800037F0622EEC3940C501A900407E094057E
:10020800401290000BE025E0F090000AE033F0A3E4
:10021800E0F08026900407E0FFC394175019EF948C
:100228000E401490000BE025E0F090000AE033F057
:10023800A3E04401F080037F0422E4900407F090D7
:100248000406E0FF3395E0FE90021775F003EF1205
:10025800104FEE75F003A42583F583A3E0FAA3E01D
:10026800F912105BBF010C900407E004F0E0C3949E
:100278004640CC900407E0B446037F062290040869
:10028800E004F0E0C3941050030201B8E4900408BD
:10029800F0E4900407F0900406E0FF3395E0FE9048
:1002A800021775F003EF12104FEE75F003A42583C3
:1002B800F583A3E0FAA3E0F912105BEF700C900449
:1002C80007E004F0E0C3944640CC900407E0FEB495
:1002D80046037F0622EEC3940C5012900407E09464
:1002E80005400A9001ECE025E0F0F0801E9004073C
:1002F800E0FFC394175011EF940E400C9001ECE00E
:1003080025E0F04401F080037F0422E4900407F024
:10031800900406E0FF3395E0FE90021775F003EFB6
:1003280012104FEE75F003A42583F583A3E0FAA31A
:10033800E0F912105BBF010C900407E004F0E0C381
:10034800944640CC900407E0B446037F062290040C
:1003580008E004F0E0C394075003020299E4900413
:1003680007F0900406E0FF3395E0FE90021775F061
:1003780003EF12104FEE75F003A42583F583A3E075
:10038800FAA3E0F912105BEF700C900407E004F098
:10039800E0C3944640CC900407E0FEB446037F06D1
:1003A80022EEC3940C5012900407E09405400A9082
:1003B80001ECE025E0F0F0801E900407E0FFC39414
:1003C800175011EF940E400C9001ECE025E0F0443A
:1003D80001F080037F0422E4900407F0900406E013
:1003E800FF3395E0FE90021775F003EF12104FEE01
:1003F80075F003A42583F583A3E0FAA3E0F91210AE
:100408005BBF010C900407E004F0E0C3944640CCC5
:10041800900407E0B446037F0622900406E0FF3309
:1004280095E0FE90000375F003EF12104FEE75F0A3
:1004380003A42583F583A3E0FAA3E0F5828A83E485
:10044800FF12105FE4900408F0900406E0FF339573
:10045800E0FE90021775F003EF12104FEE75F003EF
:10046800A42583F583A3E0FAA3E0F912105BEF70EB
:1004780036900406E0FF3395E0FE90000375F00324
:10048800EF12104FEE75F003A42583F583A3E0FA6D
:10049800A3E0F5828A83E4FF12105F900408E00469
:1004A800F0E0C394C840A2900408E0FFC39412404F
:1004B80006EFD39417402D900406E0FF3395E0FE35
:1004C80090000375F003EF12104FEE75F003A425AA
:1004D80083F583A3E0FAA3E0F5828A837F011210F3
:1004E8005F7F0522900406E0FF3395E0FE9000034D
:1004F80075F003EF12104FEE75F003A42583F58312
:10050800A3E0FAA3E0F5828A837F0112105F7F00DF
:0105180022C0
:0C051900900002F0E4900000F0A3F0FF5E
:05052500900406EFF058
:10052A00C36480948140037F0122900406E0FF3374
:10053A0095E0FE90021775F003EF12104FEE75F07A
:10054A0003A42583F583A3E0FAA3E0F912105BEF75
:10055A0070037F0222E4FD90041F740FF090041FC1
:10056A00E0FFD3940F5031900000E0FEA3E0A8070B
:10057A00088005CEC313CE13D8F9540175F00AA426
:10058A00240AFF74072DF582E43404F583EFF00D95
:10059A0090041FE014F080C590041F7407F09004C3
:1005AA001FE0FFD39407502C900002E0FEA8070832
:1005BA008002C313D8FC540175F00AA4240AFF74FC
:1005CA00072DF582E43404F583EFF00D90041FE063
:1005DA0014F080CAE490041FF0900406E0FF3395FB
:1005EA00E0FE90021775F003EF12104FEE75F0035C
:1005FA00A42583F583A3E0FAA3E0F912105BBF01F7
:10060A0036900406E0FF3395E0FE90000375F00390
:10061A00EF12104FEE75F003A42583F583A3E0FAD9
:10062A00A3E0F5828A83E4FF12105F90041FE004BE
:10063A00F0E0C3940A40A290041FE0B40A2D90048B
:10064A0006E0FF3395E0FE90000375F003EF121009
:10065A004FEE75F003A42583F583A3E0FAA3E0F532
:10066A00828A837F0112105F7F0322E490041FF0C5
:10067A00900406E0FF3395E0FE90000375F003EF67
:10068A0012104FEE75F003A42583F583A3E0FAA3B5
:10069A00E0F5828A83E4FF12105F90041FE004F001
:1006AA00E0C3942540CAE490041FF0900406E0FFDA
:1006BA003395E0FE90021775F003EF12104FEE75B6
:1006CA00F003A42583F583A3E0FAA3E0F912105BF3
:1006DA00EF7036900406E0FF3395E0FE9000037554
:1006EA00F003EF12104FEE75F003A42583F583A3F0
:1006FA00E0FAA3E0F5828A837F0112105F90041F5B
:10070A00E004F0E0C3940A40A290041FE0B40A0394
:10071A007F0322E490041FF0900406E0FF3395E083
:10072A00FE90000375F003EF12104FEE75F003A46C
:10073A002583F583A3E0FAA3E0F5828A837F011279
:10074A00105F90041FE004F0E0C3942540CAE490CF
:10075A00041FF090041FE0FFC3941840030207F53A
:10076A0074072FF582E43404F583E0900420F090B6
:10077A000420E06032900406E0FF3395E0FE90002A
:10078A000375F003EF12104FEE75F003A42583F5FD
:10079A0083A3E0FAA3E0F5828A83E4FF12105F9054
:1007AA000420E014F080C8E4900420F0900406E0ED
:1007BA00FF3395E0FE90000375F003EF12104FEE41
:1007CA0075F003A42583F583A3E0FAA3E0F5828AF2
:1007DA00837F0112105F900420E004F0E0C3940AC2
:1007EA0040CA90041FE004F002075DE490041FF081
:1007FA00900406E0FF3395E0FE90021775F003EFD0
:10080A0012104FEE75F003A42583F583A3E0FAA333
:10081A00E0F912105BBF0136900406E0FF3395E061
:10082A00FE90000375F003EF12104FEE75F003A46B
:10083A002583F583A3E0FAA3E0F5828A83E4FF1215
:10084A00105F90041FE004F0E0C3940A40A29004F1
:10085A001FE0B40A2D900406E0FF3395E0FE9000F5
:10086A000375F003EF12104FEE75F003A42583F51C
:10087A0083A3E0FAA3E0F5828A837F0112105F7FE7
:10088A000422E490041FF0900406E0FF3395E0FE92
:10089A0090000375F003EF12104FEE75F003A425D4
:1008AA0083F583A3E0FAA3E0F5828A83E4FF1210BA
:1008BA005F90041FE004F0E0C3942540CAE490046A
:1008CA001FF0900406E0FF3395E0FE90021775F0E2
:1008DA0003EF12104FEE75F003A42583F583A3E00E
:1008EA00FAA3E0F912105BEF7036900406E0FF33CA
:1008FA0095E0FE90000375F003EF12104FEE75F0CD
:10090A0003A42583F583A3E0FAA3E0F5828A837F13
:10091A000112105F90041FE004F0E0C3940A40A2A1
:10092A0090041FE0B40A037F0422900406E0FF3318
:10093A0095E0FE90000375F003EF12104FEE75F08C
:10094A0003A42583F583A3E0FAA3E0F5828A837FD3
:06095A000112105F7F0096
:010960002274
:10190600E4FFFEE4FDFC0DBD00010CED64C84C7067
:0C191600F50FBF00010EEF64C84E70E733
:0119220022A2
:1010B600E4F580F590F5A0F5B0121923900217A378
:1010C600E0FAA3E0F912105BEF640160EFE4FF12AF
:1010D6000003EF70E79001ECE0FF60E090000AE0AB
:1010E600FDA3E0900000CDF0A3EDF0A3EFF0E4FF48
:1010F6001205259001ECE0B4F1129000007411F095
:10110600A37416F0A37421F0E40212D69001ECE069
:0711160064F0600302127295
:10111D0090000AE0B4340CA3E0B463077411120517
:10112D001980109000027410F0E4900000F0A3F00C
:10113D000212D6758080E4F59075A00175B003900C
:10114D000404F0A304F0E4900402F0A3F09004046E
:10115D00A3E04280121906E025E0F0900404E0338C
:10116D00F0758080121906900403E004F07006906B
:10117D000402E004F0C3900403E09407900402E03D
:10118D006480948040C7900404E4F0A304F0E490DC
:10119D000402F0A3F0900404A3E04290121906E0BB
:1011AD0025E0F0900404E033F0E4F5901219069078
:1011BD000403E004F07006900402E004F0C3900410
:1011CD0003E09408900402E06480948040C790048A
:1011DD0004E4F0A37404F0E4900402F0A3F090048E
:1011ED0004A3E042B0121906E025E0F0900404E0FB
:1011FD0033F075B003121906900403E004F0700685
:10120D00900402E004F0C3900403E09406900402FD
:10121D00E06480948040C7900404E4F0A37402F06D
:10122D00E4900402F0A3F0C3900403E0940790044B
:10123D0002E06480948040030210C2900404A3E095
:10124D0042A0121906E025E0F0900404E033F07599
:10125D00A001121906900403E004F070CA90040274
:05126D00E004F080C266
:081272009001ECE064F37063ED
:10127A001218E990000AE0FEA3E0FF540FFD900463
:10128A0002F0EEC4F854F0C8EFC4540F48540FA348
:10129A00F0BD0105E06401600C900402E0B40214A0
:1012AA00A3E0B4020F9000027413F0E4900000F07F
:1012BA00A3F08018900402E0FFA3E0FD12188990C1
:1012CA0000027412F0E4900000F0A3F0FF1205256A
:1012DA000210C29001ECE0642160030213689000DE
:1012EA000AE0FEA3E0FF9003FEEEF0A3EFF0121572
:1012FA003C90021CEEF0A3EFF0E025E0FF90021C08
:10130A00E033FE740C2FF58274003EF583E0FFA3F0
:10131A00E0900000CFF0A3EFF0A37421F0E4FF12F5
:10132A000525900217A3E0FAA3E0F912105BEF6417
:10133A000160EFE4FF120003EF60030210C29001A4
:10134A00ECE0FF70030210C2EF641060030210C2E7
:10135A0090021CE0FEA3E0FF1215EE0210C2741404
:06136A001205190210C279
:100D6400EC4D6011E8497017ED33EC3304600DE489
:100D7400FCFFFEFD22E933E8330470F8020FEA12A7
:100D84000FB558046009E4CC2481500628500902A8
:100D94000FF4284003020FF1C0E0EB4A7044B9801D
:100DA40006D0E0FB020FE0EF4E701CBD8008EBFFA5
:100DB400EAFEE9FD80EBE98DF0A4FEE5F0020E4DBC
:100DC400E9CDF9EAFEEBFFEF89F0A4FCE5F0CE896A
:100DD400F0A42EFFE435F0CD89F0A42DFEE435F027
:100DE4008067EF4E7005BD80D780C3EF8BF0A4AC55
:100DF400F0EE8BF0A42CFCE435F0F8EF8AF0A42C90
:100E0400E5F038FCE433CB8DF0A42CFCE5F03BF8A2
:100E1400EE8AF0A42CFCE5F038F8E433CF89F0A492
:100E24002CFCE5F038CF3400CE89F0A42FFFE5F098
:100E34003EFEE433C98DF0A42EFEE5F039CD8AF0F0
:100E4400A42FFFE5F03EFEE43DFD33D0E0FB500768
:100E54000BBB000F020FF4EC2CFCEF33FFEE33FE60
:060E6400ED33FD020FCC8E
:100E6A00020FF4EC5D046005E859047003020FEA0E
:100E7A00120FB5580460F6EC4860F2EC7004FDFEFF
:100E8A00FF22C860DB2481C85009C398600250065B
:100E9A00020FF19850CAF582E9294B4A7005AB82D4
:100EAA00020FE075F0007C1A7880C3EF9BEE9AED92
:100EBA0099400DC3EF9BFFEE9AFEED99FDE842F0D3
:100ECA00DC23ACF0D0E0FFD0E0FED0E0FDAB822026
:100EDA00E7101BEB60BAEC2CFCEF33FFEE33FEEDB0
:100EEA0033FD020FCCE803F830E705C0F075F000D7
:100EFA00EF2FFFEE33FEED33FD40B830E7C280AA94
:100F0A0074F8CC6480CCC86480C8F582046043C39A
:100F1A00EB9FF5F0EA9E42F0E99D42F0E89C45F02D
:100F2A0060305018E5825FFFE582F42B5582FB5052
:100F3A00210ABA001D09B90019088016E5825BFB6F
:100F4A00E582F42F5582FF50090EBE00050DBD0043
:100F5A00010CC3EB9FF5F0EA9E42F0E99D42F0E8EE
:0D0F6A009C45F06007CC4820E701B3EC2265
:100F770075F020800E75F010800575F0087D007EF5
:100F8700007F003392D530D503121035EC33401073
:100F9700EF33FFEE33FEED33FDEC33FCD5F0ED22FE
:0E0FA700E5F0247EA2D513CC92E7CDCEFF223A
:100FB500E9D2E7C933E833F892D5EDD2E7CD33EC82
:070FC50033FC5002B2D522FB
:100FCC00EC30E7100FBF000C0EBE00080DBD000486
:100FDC000BEB6014A2D5EB13FCED92E7FD2274FF32
:100FEC00FCFDFEFF22E480F8A2D574FF13FC7D808B
:030FFC00E480EF9F
:1016A0000210B6E493A3F8E493A34003F68001F29A
:1016B00008DFF48029E493A3F85407240CC8C3334B
:1016C000C4540F4420C8834004F456800146F6DF1A
:1016D000E4800B0102040810204080900961E47E40
:1016E000019360BCA3FF543F30E509541FFEE4930F
:1016F000A360010ECF54C025E060A840B8E493A3D6
:10170000FAE493A3F8E493A3C8C582C8CAC583CA00
:10171000F0A3C8C582C8CAC583CADFE9DEE780BEB8
:010D6300008F
:100FFF00C2D5EC30E709B2D5E4C39DFDE49CFCEE0D
:10100F0030E715B2D5E4C39FFFE49EFE121061C313
:10101F00E49DFDE49CFC800312106130D507C3E40E
:06102F009FFFE49EFE227B
:0E103500C3E49FFFE49EFEE49DFDE49CFC22CC
:0C104300ECF0A3EDF0A3EEF0A3EFF02220
:0C104F00A42582F582E5F03583F58322AC
:06105B008A838982E47320
:10106100BC000BBE0029EF8DF084FFADF022E4CC73
:10107100F875F008EF2FFFEE33FEEC33FCEE9DEC3C
:10108100984005FCEE9DFE0FD5F0E9E4CEFD22ED82
:10109100F8F5F0EE8420D21CFEADF075F008EF2FCC
:1010A100FFED33FD4007985006D5F0F222C398FDBD
:0510B1000FD5F0EA225A
:00000001FF
